:020000040800F2
:10000000005000202D0B00087D0B00087D0B000820
:100010007D0B00087D0B00087D0B00080000000030
:100020000000000000000000000000007D0B000840
:100030007D0B0008000000007D0B00087D0B000810
:100040007D0B00087D0B00087D0B00087D0B000870
:100050007D0B00087D0B00087D0B00087D0B000860
:100060007D0B0008610A00087D0B00087D0B00086D
:100070007D0B00087D0B00087D0B00087D0B000840
:100080007D0B00087D0B00087D0B00087D0B000830
:100090007D0B00087D0B00087D0B00087D0B000820
:1000A0007D0B00087D0B00087D0B00087D0B000810
:1000B0007D0B00087D0B00087D0B00087D0B000800
:1000C0007D0B00087D0B00087D0B00087D0B0008F0
:1000D0007D0B00087D0B00087D0B00087D0B0008E0
:1000E0007D0B00087D0B0008000000007D0B000860
:1000F0007D0B00087D0B00087D0B00087D0B0008C0
:100100007D0B00087D0B00087D0B00087D0B0008AF
:100110007D0B00087D0B00087D0B00087D0B00089F
:100120007D0B00087D0B00087D0B00087D0B00088F
:1001300010B5054C237833B9044B13B10448AFF321
:1001400000800123237010BD00000020000000008B
:10015000C80B000808B5034B1BB103490348AFF3B4
:10016000008008BD0000000004000020C80B00084B
:1001700080F0004002E000BF81F0004142001FBF5C
:100180005FEA410392EA030F7FEA226C7FEA236C65
:100190006AD04FEA1262D2EB1363C1BFD21841405A
:1001A00048404140B8BF5B42192B88BF704710F0F0
:1001B000004F40F4000020F07F4018BF404211F093
:1001C000004F41F4000121F07F4118BF494292EAFB
:1001D000030F3FD0A2F1010241FA03FC10EB0C0027
:1001E000C3F1200301FA03F100F0004302D54942B4
:1001F00060EB4000B0F5000F13D3B0F1807F06D361
:1002000040084FEA310102F10102FE2A51D2B1F158
:10021000004F40EBC25008BF20F0010040EA03004D
:100220007047490040EB0000013A28BFB0F5000FCD
:10023000EDD2B0FA80FCACF1080CB2EB0C0200FA83
:100240000CF0AABF00EBC25052421843BCBFD040D2
:100250001843704792F0000F81F4000106BF80F44C
:1002600000000132013BB5E74FEA41037FEA226C0F
:1002700018BF7FEA236C21D092EA030F04D092F0DA
:10028000000F08BF0846704790EA010F1CBF00200E
:10029000704712F07F4F04D1400028BF40F000406B
:1002A000704712F100723CBF00F50000704700F08B
:1002B000004343F0FE4040F4000070477FEA2262B2
:1002C00016BF08467FEA23630146420206BF5FEA83
:1002D000412390EA010F40F4800070474FF0000383
:1002E00004E000BF10F0004348BF40425FEA000C4A
:1002F00008BF704743F0964301464FF000001CE0F2
:1003000050EA010208BF70474FF000030AE000BF47
:1003100050EA010208BF704711F0004302D5404285
:1003200061EB41015FEA010C02BF844601460020F7
:1003300043F0B64308BFA3F18053A3F50003BCFA12
:100340008CF2083AA3EBC25310DB01FA02FC6344BF
:1003500000FA02FCC2F12002BCF1004F20FA02F2C6
:1003600043EB020008BF20F00100704702F12002B9
:1003700001FA02FCC2F1200250EA4C0021FA02F21A
:1003800043EB020008BF20EADC7070474FF0FF0C1F
:100390001CEAD0521EBF1CEAD15392EA0C0F93EA1A
:1003A0000C0F6FD01A4480EA010C400218BF5FEABC
:1003B00041211ED04FF0006343EA501043EA51112F
:1003C000A0FB01310CF00040B1F5000F3EBF490029
:1003D00041EAD3715B0040EA010062F17F02FD2A2D
:1003E0001DD8B3F1004F40EBC25008BF20F0010010
:1003F000704790F0000F0CF0004C08BF49024CEA27
:10040000502040EA51207F3AC2BFD2F1FF0340EAB8
:10041000C250704740F400004FF00003013A5DDC29
:1004200012F1190FDCBF00F000407047C2F100026A
:10043000410021FA02F1C2F1200200FA02FC5FEA57
:10044000310040F1000053EA4C0308BF20EADC70A1
:10045000704792F0000F00F0004C02BF400010F413
:10046000000F013AF9D040EA0C0093F0000F01F0C0
:10047000004C02BF490011F4000F013BF9D041EAE2
:100480000C018FE70CEAD15392EA0C0F18BF93EAE4
:100490000C0F0AD030F0004C18BF31F0004CD8D10E
:1004A00080EA010000F00040704790F0000F17BF95
:1004B00090F0004F084691F0000F91F0004F14D0DB
:1004C00092EA0C0F01D142020FD193EA0C0F03D133
:1004D0004B0218BF084608D180EA010000F0004036
:1004E00040F0FE4040F40000704740F0FE4040F411
:1004F000400070474FF0FF0C1CEAD0521EBF1CEAB0
:10050000D15392EA0C0F93EA0C0F69D0A2EB0302CD
:1005100080EA010C49024FEA402037D04FF0805367
:1005200043EA111143EA10130CF000408B4238BF2C
:100530005B0042F17D024FF4000C8B4224BF5B1A3A
:1005400040EA0C00B3EB510F24BFA3EB510340EA88
:100550005C00B3EB910F24BFA3EB910340EA9C0036
:10056000B3EBD10F24BFA3EBD10340EADC001B01A6
:1005700018BF5FEA1C1CE0D1FD2A3FF650AF8B424A
:1005800040EBC25008BF20F0010070470CF0004C57
:100590004CEA50207F32C2BFD2F1FF0340EAC25082
:1005A000704740F400004FF00003013A37E792F043
:1005B000000F00F0004C02BF400010F4000F013AA1
:1005C000F9D040EA0C0093F0000F01F0004C02BF9C
:1005D000490011F4000F013BF9D041EA0C0195E705
:1005E0000CEAD15392EA0C0F08D142027FF47DAF9E
:1005F00093EA0C0F7FF470AF084676E793EA0C0F8E
:1006000004D14B023FF44CAF08466EE730F0004C8B
:1006100018BF31F0004CCAD130F000427FF45CAF1B
:1006200031F000437FF43CAF5FE700BF4FF0FF3C89
:1006300006E000BF4FF0010C02E000BF4FF0010CDC
:100640004DF804CD4FEA40024FEA41037FEA226CA5
:1006500018BF7FEA236C11D001B052EA530C18BFC7
:1006600090EA010F58BFB2EB030088BFC81738BF2C
:100670006FEAE17018BF40F0010070477FEA226C1A
:1006800002D15FEA402C05D17FEA236CE4D15FEA16
:10069000412CE1D05DF8040B704700BF844608464A
:1006A0006146FFE70FB5FFF7C9FF002848BF10F10B
:1006B000000F0FBD4DF808EDFFF7F4FF0CBF012050
:1006C00000205DF808FB00BF4DF808EDFFF7EAFFDA
:1006D00034BF012000205DF808FB00BF4DF808ED95
:1006E000FFF7E0FF94BF012000205DF808FB00BF8A
:1006F0004DF808EDFFF7D2FF94BF012000205DF810
:1007000008FB00BF4DF808EDFFF7C8FF34BF01201C
:1007100000205DF808FB00BF80B400AF0B4B1B68E6
:100720000A4A43F400631360094B00221A60094B24
:1007300007221A60084B4FF6FF721A60074B00221F
:100740001A6000BFBD4680BC704700BF1810024051
:10075000002C0140282C01402C2C0140242C01406D
:1007600080B483B000AF78600F4A7B6813600F4B92
:1007700000221A600E4B1B680D4A23F00103136020
:100780000C4B1B680B4A43F00103136000BF084B7E
:100790001B6803F00103002BF9D000BF00BF0C372A
:1007A000BD4680BC704700BF2C2C0140242C01406A
:1007B000102C0140002C014080B582B000AF786061
:1007C00003E04FF47A70FFF7CBFF7B685A1E7A6024
:1007D000002BF6D100BF00BF0837BD4680BD00002A
:1007E00080B400AF314B1B68304A43F005031360FF
:1007F0002F4B1B682E4A23F00F0313602C4B1B68F2
:100800002B4A43F003031360294B1B68284A23F04B
:10081000F0031360264B1B68254A43F04003136026
:10082000234B1B68224A23F470631360204B1B6820
:100830001F4A43F4407313601D4B1B681C4A23F48A
:10084000704313601A4B1B68194A43F440531360FA
:10085000174B1B68164A23F470031360144B1B6874
:10086000134A43F400031360124B1B68114A23F030
:1008700020031360104B1B680F4A23F4706313604E
:100880000D4B1B680C4A43F400631360094B1B6853
:10089000084A23F480631360064B1B68054A23F063
:1008A0000D03136000BFBD4680BC704718100240A6
:1008B000000801400C0801400408014080B400AF6A
:1008C0000A4B1B68094A43F001031360084B0722D7
:1008D0001A60084B4FF6FF721A604FF080430122F6
:1008E0001A6000BFBD4680BC704700BF1C100240AC
:1008F000280000402C00004080B400AF0F4B1B6864
:100900000E4A23F4704313600C4B0C4A1B681360AF
:100910000B4B1B680A4A43F008031360094B1B6822
:10092000084A43F008031360074B1B68064A43F468
:100930000073136000BFBD4680BC704708000140D3
:10094000000401400804014000E100E080B500AF70
:100950001F4B1B681E4A23F0010313600220FFF7A0
:10096000FFFE1B4B1B681A4A43F0010313600A2069
:10097000FFF7F6FE164B1B68154A23F001031360C0
:1009800000BF144B1B6803F00203002BF9D0124B7D
:1009900000221A6000BF0F4B1B6803F00203002BFC
:1009A000F9D10D4B1B680D4A13600C4B1B681846A0
:1009B000FFF794FC03460A491846FFF7E7FC034695
:1009C0004FF080411846FFF795FD0346184680BD5D
:1009D0000C080140080801402400004020000020CD
:1009E000287E0C3D80B400AF064B1B68054A23F0FF
:1009F00004031360044B01221A7000BFBD4680BC83
:100A0000704700BF0C0801401C00002080B400AFFC
:100A1000064B1B68054A43F004031360044B002295
:100A20001A7000BFBD4680BC704700BF0C08014073
:100A30001C00002080B500AF084B1B68074A43F03C
:100A4000080313600120FFF78BFE044B1B68034A69
:100A500023F00803136000BF80BD00BF0C080140F5
:100A600080B500AF074B1B6803F00803002B07D0CD
:100A7000FFF7CCFF034B1B68024A43F008031360E7
:100A800000BF80BD1404014080B582B000AFFFF705
:100A9000A7FEFFF741FEFFF711FFFFF72DFFFFF75E
:100AA000B5FF1E4B1B6803F48063002B14BF0123AA
:100AB0000023DBB2FB71FB79002B20D1FFF746FF4F
:100AC000386017493868FFF7FFFD0346002B07D051
:100AD000144B1B78DBB2002B02D0FFF7ABFF19E001
:100AE00011493868FFF70EFE0346002B12D00D4B5C
:100AF0001B78DBB2002B0DD1FFF774FF0AE0074B28
:100B00001B6803F02003002B02D0FFF76BFF01E00E
:100B1000FFF77CFF6420FFF74FFEC2E708080140A3
:100B2000000020411C0000200000A0410D48854627
:100B3000AFF300800C480D490D4A002302E0D45861
:100B4000C4500433C4188C42F9D30A4A0A4C002317
:100B500001E013600432A242FBD300F011F8FFF76A
:100B600093FFFEE70050002000000020000000205E
:100B7000E80B00080000002024000020FEE7000031
:100B800070B500260C4D0D4C641BA410A64209D173
:100B900000F01AF800260A4D0A4C641BA410A64265
:100BA00005D170BD55F8043B98470136EEE755F87E
:100BB000043B98470136F2E7E00B0008E00B000821
:100BC000E00B0008E40B0008F8B500BFF8BC08BC57
:100BD0009E467047F8B500BFF8BC08BC9E467047FB
:040BE00055010008B3
:040BE40031010008D3
:0400000508000B2DB7
:00000001FF
